{
  "address": "0xEe48D63882a5a587F3C69A9cB02bD23bf2E21F78",
  "abi": [
    {
      "inputs": [],
      "stateMutability": "payable",
      "type": "constructor"
    },
    {
      "inputs": [],
      "name": "NotEnoughCards",
      "type": "error"
    },
    {
      "inputs": [],
      "name": "NotEnoughEther",
      "type": "error"
    },
    {
      "anonymous": false,
      "inputs": [
        {
          "indexed": true,
          "internalType": "address",
          "name": "player",
          "type": "address"
        },
        {
          "indexed": false,
          "internalType": "uint256",
          "name": "streak",
          "type": "uint256"
        }
      ],
      "name": "CardAwarded",
      "type": "event"
    },
    {
      "anonymous": false,
      "inputs": [
        {
          "indexed": true,
          "internalType": "address",
          "name": "player",
          "type": "address"
        },
        {
          "indexed": false,
          "internalType": "uint256",
          "name": "cardsSpent",
          "type": "uint256"
        }
      ],
      "name": "PrizeRedeemed",
      "type": "event"
    },
    {
      "anonymous": false,
      "inputs": [
        {
          "indexed": true,
          "internalType": "address",
          "name": "player",
          "type": "address"
        },
        {
          "indexed": false,
          "internalType": "uint256",
          "name": "amount",
          "type": "uint256"
        },
        {
          "indexed": false,
          "internalType": "uint256",
          "name": "roll",
          "type": "uint256"
        }
      ],
      "name": "Roll",
      "type": "event"
    },
    {
      "anonymous": false,
      "inputs": [
        {
          "indexed": false,
          "internalType": "address",
          "name": "winner",
          "type": "address"
        },
        {
          "indexed": false,
          "internalType": "uint256",
          "name": "amount",
          "type": "uint256"
        }
      ],
      "name": "Winner",
      "type": "event"
    },
    {
      "inputs": [],
      "name": "CARDS_REQUIRED_FOR_PRIZE",
      "outputs": [
        {
          "internalType": "uint256",
          "name": "",
          "type": "uint256"
        }
      ],
      "stateMutability": "view",
      "type": "function"
    },
    {
      "inputs": [],
      "name": "STREAK_REQUIRED_FOR_CARD",
      "outputs": [
        {
          "internalType": "uint256",
          "name": "",
          "type": "uint256"
        }
      ],
      "stateMutability": "view",
      "type": "function"
    },
    {
      "inputs": [
        {
          "internalType": "address",
          "name": "",
          "type": "address"
        }
      ],
      "name": "cardsOwned",
      "outputs": [
        {
          "internalType": "uint256",
          "name": "",
          "type": "uint256"
        }
      ],
      "stateMutability": "view",
      "type": "function"
    },
    {
      "inputs": [
        {
          "internalType": "address",
          "name": "",
          "type": "address"
        }
      ],
      "name": "currentStreak",
      "outputs": [
        {
          "internalType": "uint256",
          "name": "",
          "type": "uint256"
        }
      ],
      "stateMutability": "view",
      "type": "function"
    },
    {
      "inputs": [
        {
          "internalType": "address",
          "name": "player",
          "type": "address"
        }
      ],
      "name": "getPlayerCards",
      "outputs": [
        {
          "internalType": "uint256",
          "name": "",
          "type": "uint256"
        }
      ],
      "stateMutability": "view",
      "type": "function"
    },
    {
      "inputs": [
        {
          "internalType": "address",
          "name": "player",
          "type": "address"
        }
      ],
      "name": "getPlayerPrizes",
      "outputs": [
        {
          "internalType": "uint256",
          "name": "",
          "type": "uint256"
        }
      ],
      "stateMutability": "view",
      "type": "function"
    },
    {
      "inputs": [
        {
          "internalType": "address",
          "name": "player",
          "type": "address"
        }
      ],
      "name": "getPlayerStats",
      "outputs": [
        {
          "internalType": "uint256",
          "name": "streak",
          "type": "uint256"
        },
        {
          "internalType": "uint256",
          "name": "cards",
          "type": "uint256"
        },
        {
          "internalType": "uint256",
          "name": "prizes",
          "type": "uint256"
        }
      ],
      "stateMutability": "view",
      "type": "function"
    },
    {
      "inputs": [
        {
          "internalType": "address",
          "name": "player",
          "type": "address"
        }
      ],
      "name": "getPlayerStreak",
      "outputs": [
        {
          "internalType": "uint256",
          "name": "",
          "type": "uint256"
        }
      ],
      "stateMutability": "view",
      "type": "function"
    },
    {
      "inputs": [],
      "name": "nonce",
      "outputs": [
        {
          "internalType": "uint256",
          "name": "",
          "type": "uint256"
        }
      ],
      "stateMutability": "view",
      "type": "function"
    },
    {
      "inputs": [],
      "name": "prize",
      "outputs": [
        {
          "internalType": "uint256",
          "name": "",
          "type": "uint256"
        }
      ],
      "stateMutability": "view",
      "type": "function"
    },
    {
      "inputs": [
        {
          "internalType": "address",
          "name": "",
          "type": "address"
        }
      ],
      "name": "prizesOwned",
      "outputs": [
        {
          "internalType": "uint256",
          "name": "",
          "type": "uint256"
        }
      ],
      "stateMutability": "view",
      "type": "function"
    },
    {
      "inputs": [],
      "name": "redeemCards",
      "outputs": [],
      "stateMutability": "nonpayable",
      "type": "function"
    },
    {
      "inputs": [],
      "name": "rollTheDice",
      "outputs": [],
      "stateMutability": "payable",
      "type": "function"
    },
    {
      "stateMutability": "payable",
      "type": "receive"
    }
  ],
  "transactionHash": "0x3e29b524e1d5ad781a40bd74e84a75b2472daa47b78074757db073b7161c4996",
  "args": [],
  "numDeployments": 3,
  "solcInputHash": "1a2807ddd8a2a42c05effba393ce2324",
  "bytecode": "0x60806040526000808055600155610014610019565b610082565b606461002647600a610035565b6100309190610060565b600155565b808202811582820484141761005a57634e487b7160e01b600052601160045260246000fd5b92915050565b60008261007d57634e487b7160e01b600052601260045260246000fd5b500490565b6108d6806100916000396000f3fe6080604052600436106100c65760003560e01c80637d789dee1161007f578063ad5c21d911610059578063ad5c21d914610253578063affed0e014610289578063e3ac5d261461029f578063fe618a05146102b557600080fd5b80637d789dee146101e85780639efcc249146101f0578063ab918c2a1461022657600080fd5b806338d05af4146100d25780633b77aa86146101125780634fd66eae1461012757806351d740ce1461018f5780635c45f739146101a45780636f11d5b3146101d157600080fd5b366100cd57005b600080fd5b3480156100de57600080fd5b506100ff6100ed366004610744565b60036020526000908152604090205481565b6040519081526020015b60405180910390f35b34801561011e57600080fd5b506100ff600581565b34801561013357600080fd5b50610174610142366004610744565b6001600160a01b0316600090815260026020908152604080832054600383528184205460049093529220549192909190565b60408051938452602084019290925290820152606001610109565b34801561019b57600080fd5b506100ff600181565b3480156101b057600080fd5b506100ff6101bf366004610744565b60026020526000908152604090205481565b3480156101dd57600080fd5b506101e66102eb565b005b6101e661039c565b3480156101fc57600080fd5b506100ff61020b366004610744565b6001600160a01b031660009081526002602052604090205490565b34801561023257600080fd5b506100ff610241366004610744565b60046020526000908152604090205481565b34801561025f57600080fd5b506100ff61026e366004610744565b6001600160a01b031660009081526003602052604090205490565b34801561029557600080fd5b506100ff60005481565b3480156102ab57600080fd5b506100ff60015481565b3480156102c157600080fd5b506100ff6102d0366004610744565b6001600160a01b031660009081526004602052604090205490565b336000908152600360205260409020546005111561031f576040516001627a31ed60e11b0319815260040160405180910390fd5b33600090815260036020526040812080546005929061033f90849061078a565b909155505033600090815260046020526040812080549161035f836107a3565b90915550506040516005815233907fd9db8eaa91964db3692e98178f033eaad91cf664091a9d7ca5f2067ee601029d9060200160405180910390a2565b66071afd498d00003410156103c457604051638a0d377960e01b815260040160405180910390fd5b60006103d160014361078a565b409050600081306000546040516020016104109392919092835260609190911b6bffffffffffffffffffffffff19166020830152603482015260540190565b60408051601f198184030181529190528051602090910120905060006104376010836107d2565b9050610487604051806040016040528060018152602001600960f81b815250604051806040016040528060128152602001711010102234b1b29023b0b6b2902937b6361d60711b815250836106af565b600080549080610496836107a3565b90915550606490506104a93460286107e6565b6104b391906107fd565b600160008282546104c49190610811565b9091555050604080513481526020810183905233917f61cfee61b80d296eb67d23740a2278ba7f3d857fe9aa27f1ed9fe4882e254360910160405180910390a260068111801561069857336000908152600260205260408120805491610529836107a3565b9091555050336000908152600260205260409020546001116105ba57336000908152600360205260408120805491610560836107a3565b9091555050336000818152600260209081526040918290205491519182527f3a23364f1be887c2368849ef8fe16274ab37d267630f73e1dffcfcc37475f1ac910160405180910390a2336000908152600260205260408120555b600154604051600090339083908381818185875af1925050503d80600081146105ff576040519150601f19603f3d011682016040523d82523d6000602084013e610604565b606091505b50509050806106505760405162461bcd60e51b81526020600482015260146024820152732330b4b632b2103a379039b2b7321022ba3432b960611b604482015260640160405180910390fd5b6106586106fb565b60408051338152602081018490527f9c2270628a9b29d30ae96b6c4c14ed646ee134febdce38a5b77f2bde9cea2e20910160405180910390a150506106a9565b336000908152600260205260408120555b50505050565b6106f68383836040516024016106c79392919061086a565b60408051601f198184030181529190526020810180516001600160e01b0316635821efa160e01b179052610717565b505050565b606461070847600a6107e6565b61071291906107fd565b600155565b61072081610723565b50565b60006a636f6e736f6c652e6c6f679050600080835160208501845afa505050565b60006020828403121561075657600080fd5b81356001600160a01b038116811461076d57600080fd5b9392505050565b634e487b7160e01b600052601160045260246000fd5b8181038181111561079d5761079d610774565b92915050565b6000600182016107b5576107b5610774565b5060010190565b634e487b7160e01b600052601260045260246000fd5b6000826107e1576107e16107bc565b500690565b808202811582820484141761079d5761079d610774565b60008261080c5761080c6107bc565b500490565b8082018082111561079d5761079d610774565b6000815180845260005b8181101561084a5760208185018101518683018201520161082e565b506000602082860101526020601f19601f83011685010191505092915050565b60608152600061087d6060830186610824565b828103602084015261088f8186610824565b91505082604083015294935050505056fea26469706673582212202baffdfd7a34fb07696a4cfd0e293c7a9694a8c89c589acd91f5ce98af9742a164736f6c63430008140033",
  "devdoc": {
    "kind": "dev",
    "methods": {},
    "version": 1
  },
  "userdoc": {
    "kind": "user",
    "methods": {},
    "version": 1
  },
  "storageLayout": {
    "storage": [
      {
        "astId": 5,
        "contract": "contracts/DiceGame.sol:DiceGame",
        "label": "nonce",
        "offset": 0,
        "slot": "0",
        "type": "t_uint256"
      },
      {
        "astId": 8,
        "contract": "contracts/DiceGame.sol:DiceGame",
        "label": "prize",
        "offset": 0,
        "slot": "1",
        "type": "t_uint256"
      },
      {
        "astId": 12,
        "contract": "contracts/DiceGame.sol:DiceGame",
        "label": "currentStreak",
        "offset": 0,
        "slot": "2",
        "type": "t_mapping(t_address,t_uint256)"
      },
      {
        "astId": 16,
        "contract": "contracts/DiceGame.sol:DiceGame",
        "label": "cardsOwned",
        "offset": 0,
        "slot": "3",
        "type": "t_mapping(t_address,t_uint256)"
      },
      {
        "astId": 20,
        "contract": "contracts/DiceGame.sol:DiceGame",
        "label": "prizesOwned",
        "offset": 0,
        "slot": "4",
        "type": "t_mapping(t_address,t_uint256)"
      }
    ],
    "types": {
      "t_address": {
        "encoding": "inplace",
        "label": "address",
        "numberOfBytes": "20"
      },
      "t_mapping(t_address,t_uint256)": {
        "encoding": "mapping",
        "key": "t_address",
        "label": "mapping(address => uint256)",
        "numberOfBytes": "32",
        "value": "t_uint256"
      },
      "t_uint256": {
        "encoding": "inplace",
        "label": "uint256",
        "numberOfBytes": "32"
      }
    }
  }
}